{
  "_format": "hh-sol-artifact-1",
  "contractName": "VotingSystem",
  "sourceName": "contracts/VotingSystem.sol",
  "abi": [
    {
      "inputs": [],
      "stateMutability": "nonpayable",
      "type": "constructor"
    },
    {
      "anonymous": false,
      "inputs": [
        {
          "indexed": false,
          "internalType": "address",
          "name": "user",
          "type": "address"
        },
        {
          "indexed": false,
          "internalType": "string",
          "name": "username",
          "type": "string"
        },
        {
          "indexed": false,
          "internalType": "enum VotingSystem.Role",
          "name": "role",
          "type": "uint8"
        }
      ],
      "name": "UserAdded",
      "type": "event"
    },
    {
      "anonymous": false,
      "inputs": [
        {
          "indexed": false,
          "internalType": "address",
          "name": "user",
          "type": "address"
        }
      ],
      "name": "UserRemoved",
      "type": "event"
    },
    {
      "anonymous": false,
      "inputs": [
        {
          "indexed": false,
          "internalType": "uint256",
          "name": "voteId",
          "type": "uint256"
        }
      ],
      "name": "VoteClosed",
      "type": "event"
    },
    {
      "anonymous": false,
      "inputs": [
        {
          "indexed": false,
          "internalType": "uint256",
          "name": "voteId",
          "type": "uint256"
        },
        {
          "indexed": false,
          "internalType": "string",
          "name": "question",
          "type": "string"
        }
      ],
      "name": "VoteCreated",
      "type": "event"
    },
    {
      "anonymous": false,
      "inputs": [
        {
          "indexed": false,
          "internalType": "uint256",
          "name": "voteId",
          "type": "uint256"
        },
        {
          "indexed": false,
          "internalType": "address",
          "name": "voter",
          "type": "address"
        },
        {
          "indexed": false,
          "internalType": "uint256",
          "name": "option",
          "type": "uint256"
        }
      ],
      "name": "Voted",
      "type": "event"
    },
    {
      "inputs": [
        {
          "internalType": "address",
          "name": "_user",
          "type": "address"
        },
        {
          "internalType": "string",
          "name": "_username",
          "type": "string"
        },
        {
          "internalType": "enum VotingSystem.Role",
          "name": "_role",
          "type": "uint8"
        }
      ],
      "name": "addUser",
      "outputs": [],
      "stateMutability": "nonpayable",
      "type": "function"
    },
    {
      "inputs": [
        {
          "internalType": "address",
          "name": "",
          "type": "address"
        }
      ],
      "name": "admins",
      "outputs": [
        {
          "internalType": "bool",
          "name": "",
          "type": "bool"
        }
      ],
      "stateMutability": "view",
      "type": "function"
    },
    {
      "inputs": [
        {
          "internalType": "address",
          "name": "",
          "type": "address"
        }
      ],
      "name": "authorizedUsers",
      "outputs": [
        {
          "internalType": "string",
          "name": "username",
          "type": "string"
        },
        {
          "internalType": "enum VotingSystem.Role",
          "name": "role",
          "type": "uint8"
        }
      ],
      "stateMutability": "view",
      "type": "function"
    },
    {
      "inputs": [
        {
          "internalType": "uint256",
          "name": "_voteId",
          "type": "uint256"
        }
      ],
      "name": "closeVote",
      "outputs": [],
      "stateMutability": "nonpayable",
      "type": "function"
    },
    {
      "inputs": [
        {
          "internalType": "string",
          "name": "_question",
          "type": "string"
        },
        {
          "internalType": "string[]",
          "name": "_options",
          "type": "string[]"
        },
        {
          "internalType": "uint256",
          "name": "_closingDate",
          "type": "uint256"
        }
      ],
      "name": "createVote",
      "outputs": [],
      "stateMutability": "nonpayable",
      "type": "function"
    },
    {
      "inputs": [],
      "name": "getAllUsers",
      "outputs": [
        {
          "internalType": "address[]",
          "name": "",
          "type": "address[]"
        }
      ],
      "stateMutability": "view",
      "type": "function"
    },
    {
      "inputs": [
        {
          "internalType": "address",
          "name": "_user",
          "type": "address"
        }
      ],
      "name": "getUserRole",
      "outputs": [
        {
          "internalType": "enum VotingSystem.Role",
          "name": "",
          "type": "uint8"
        }
      ],
      "stateMutability": "view",
      "type": "function"
    },
    {
      "inputs": [
        {
          "internalType": "address",
          "name": "_user",
          "type": "address"
        }
      ],
      "name": "getUsername",
      "outputs": [
        {
          "internalType": "string",
          "name": "",
          "type": "string"
        }
      ],
      "stateMutability": "view",
      "type": "function"
    },
    {
      "inputs": [
        {
          "internalType": "uint256",
          "name": "_voteId",
          "type": "uint256"
        }
      ],
      "name": "getVoteDetails",
      "outputs": [
        {
          "internalType": "uint256",
          "name": "id",
          "type": "uint256"
        },
        {
          "internalType": "string",
          "name": "question",
          "type": "string"
        },
        {
          "internalType": "string[]",
          "name": "options",
          "type": "string[]"
        },
        {
          "internalType": "uint256[]",
          "name": "votesPerOption",
          "type": "uint256[]"
        },
        {
          "internalType": "uint256",
          "name": "closingDate",
          "type": "uint256"
        },
        {
          "internalType": "bool",
          "name": "isOpen",
          "type": "bool"
        }
      ],
      "stateMutability": "view",
      "type": "function"
    },
    {
      "inputs": [],
      "name": "getVotesCount",
      "outputs": [
        {
          "internalType": "uint256",
          "name": "",
          "type": "uint256"
        }
      ],
      "stateMutability": "view",
      "type": "function"
    },
    {
      "inputs": [
        {
          "internalType": "uint256",
          "name": "_voteId",
          "type": "uint256"
        },
        {
          "internalType": "address",
          "name": "_user",
          "type": "address"
        }
      ],
      "name": "hasUserVoted",
      "outputs": [
        {
          "internalType": "bool",
          "name": "",
          "type": "bool"
        }
      ],
      "stateMutability": "view",
      "type": "function"
    },
    {
      "inputs": [
        {
          "internalType": "uint256",
          "name": "_voteId",
          "type": "uint256"
        },
        {
          "internalType": "address",
          "name": "_user",
          "type": "address"
        }
      ],
      "name": "isUserAuthorized",
      "outputs": [
        {
          "internalType": "bool",
          "name": "",
          "type": "bool"
        }
      ],
      "stateMutability": "view",
      "type": "function"
    },
    {
      "inputs": [],
      "name": "owner",
      "outputs": [
        {
          "internalType": "address",
          "name": "",
          "type": "address"
        }
      ],
      "stateMutability": "view",
      "type": "function"
    },
    {
      "inputs": [
        {
          "internalType": "address",
          "name": "_user",
          "type": "address"
        }
      ],
      "name": "removeUser",
      "outputs": [],
      "stateMutability": "nonpayable",
      "type": "function"
    },
    {
      "inputs": [
        {
          "internalType": "uint256",
          "name": "",
          "type": "uint256"
        }
      ],
      "name": "userAddresses",
      "outputs": [
        {
          "internalType": "address",
          "name": "",
          "type": "address"
        }
      ],
      "stateMutability": "view",
      "type": "function"
    },
    {
      "inputs": [
        {
          "internalType": "uint256",
          "name": "_voteId",
          "type": "uint256"
        },
        {
          "internalType": "uint256",
          "name": "_optionIndex",
          "type": "uint256"
        }
      ],
      "name": "vote",
      "outputs": [],
      "stateMutability": "nonpayable",
      "type": "function"
    },
    {
      "inputs": [],
      "name": "voteCount",
      "outputs": [
        {
          "internalType": "uint256",
          "name": "",
          "type": "uint256"
        }
      ],
      "stateMutability": "view",
      "type": "function"
    },
    {
      "inputs": [
        {
          "internalType": "uint256",
          "name": "",
          "type": "uint256"
        }
      ],
      "name": "votes",
      "outputs": [
        {
          "internalType": "uint256",
          "name": "id",
          "type": "uint256"
        },
        {
          "internalType": "string",
          "name": "question",
          "type": "string"
        },
        {
          "internalType": "uint256",
          "name": "closingDate",
          "type": "uint256"
        },
        {
          "internalType": "bool",
          "name": "isOpen",
          "type": "bool"
        }
      ],
      "stateMutability": "view",
      "type": "function"
    }
  ],
  "bytecode": "0x608060405234801561001057600080fd5b50336000806101000a81548173ffffffffffffffffffffffffffffffffffffffff021916908373ffffffffffffffffffffffffffffffffffffffff16021790555060405180604001604052806040518060400160405280600581526020017f4f776e65720000000000000000000000000000000000000000000000000000008152508152602001600160028111156100ab576100aa6101f6565b5b815250600260003373ffffffffffffffffffffffffffffffffffffffff1673ffffffffffffffffffffffffffffffffffffffff16815260200190815260200160002060008201518160000190816101029190610475565b5060208201518160010160006101000a81548160ff0219169083600281111561012e5761012d6101f6565b5b02179055509050506001600360003373ffffffffffffffffffffffffffffffffffffffff1673ffffffffffffffffffffffffffffffffffffffff16815260200190815260200160002060006101000a81548160ff0219169083151502179055506005339080600181540180825580915050600190039060005260206000200160009091909190916101000a81548173ffffffffffffffffffffffffffffffffffffffff021916908373ffffffffffffffffffffffffffffffffffffffff160217905550610547565b7f4e487b7100000000000000000000000000000000000000000000000000000000600052602160045260246000fd5b600081519050919050565b7f4e487b7100000000000000000000000000000000000000000000000000000000600052604160045260246000fd5b7f4e487b7100000000000000000000000000000000000000000000000000000000600052602260045260246000fd5b600060028204905060018216806102a657607f821691505b6020821081036102b9576102b861025f565b5b50919050565b60008190508160005260206000209050919050565b60006020601f8301049050919050565b600082821b905092915050565b6000600883026103217fffffffffffffffffffffffffffffffffffffffffffffffffffffffffffffffff826102e4565b61032b86836102e4565b95508019841693508086168417925050509392505050565b6000819050919050565b6000819050919050565b600061037261036d61036884610343565b61034d565b610343565b9050919050565b6000819050919050565b61038c83610357565b6103a061039882610379565b8484546102f1565b825550505050565b600090565b6103b56103a8565b6103c0818484610383565b505050565b5b818110156103e4576103d96000826103ad565b6001810190506103c6565b5050565b601f821115610429576103fa816102bf565b610403846102d4565b81016020851015610412578190505b61042661041e856102d4565b8301826103c5565b50505b505050565b600082821c905092915050565b600061044c6000198460080261042e565b1980831691505092915050565b6000610465838361043b565b9150826002028217905092915050565b61047e82610225565b67ffffffffffffffff81111561049757610496610230565b5b6104a1825461028e565b6104ac8282856103e8565b600060209050601f8311600181146104df57600084156104cd578287015190505b6104d78582610459565b86555061053f565b601f1984166104ed866102bf565b60005b82811015610515578489015182556001820191506020850194506020810190506104f0565b86831015610532578489015161052e601f89168261043b565b8355505b6001600288020188555050505b505050505050565b6130f1806105566000396000f3fe608060405234801561001057600080fd5b50600436106101165760003560e01c80635df81330116100a2578063b384abef11610071578063b384abef14610320578063c63840711461033c578063ce43c0321461035a578063dc296ae11461038a578063e2842d79146103ba57610116565b80635df81330146102975780636e48a035146102ca5780638da5cb5b146102e6578063985751881461030457610116565b80633c192689116100e95780633c192689146101b657806340d26854146101e6578063429b62e514610202578063502c9bd51461023257806354a1b4311461026257610116565b806315dd015e1461011b5780631828983a146101375780631b605b86146101685780632782085114610186575b600080fd5b61013560048036038101906101309190611f49565b6103d8565b005b610151600480360381019061014c9190612032565b610647565b60405161015f929190612155565b60405180910390f35b610170610700565b60405161017d9190612194565b60405180910390f35b6101a0600480360381019061019b9190612032565b61070a565b6040516101ad91906121af565b60405180910390f35b6101d060048036038101906101cb91906121ca565b610763565b6040516101dd9190612225565b60405180910390f35b61020060048036038101906101fb9190612265565b61084e565b005b61021c60048036038101906102179190612032565b610b91565b6040516102299190612225565b60405180910390f35b61024c600480360381019061024791906122d4565b610bb1565b6040516102599190612310565b60405180910390f35b61027c600480360381019061027791906122d4565b610bf0565b60405161028e969594939291906124f5565b60405180910390f35b6102b160048036038101906102ac91906122d4565b610e00565b6040516102c1949392919061256b565b60405180910390f35b6102e460048036038101906102df91906122d4565b610ec5565b005b6102ee61103b565b6040516102fb9190612310565b60405180910390f35b61031e60048036038101906103199190612032565b61105f565b005b61033a600480360381019061033591906125b7565b6113f2565b005b6103446116ff565b6040516103519190612194565b60405180910390f35b610374600480360381019061036f9190612032565b611705565b60405161038191906125f7565b60405180910390f35b6103a4600480360381019061039f91906121ca565b61188f565b6040516103b19190612225565b60405180910390f35b6103c26118fa565b6040516103cf91906126d7565b60405180910390f35b600160028111156103ec576103eb6120de565b5b600260003373ffffffffffffffffffffffffffffffffffffffff1673ffffffffffffffffffffffffffffffffffffffff16815260200190815260200160002060010160009054906101000a900460ff16600281111561044e5761044d6120de565b5b1461048e576040517f08c379a000000000000000000000000000000000000000000000000000000000815260040161048590612745565b60405180910390fd5b6002825110156104d3576040517f08c379a00000000000000000000000000000000000000000000000000000000081526004016104ca906127b1565b60405180910390fd5b428111610515576040517f08c379a000000000000000000000000000000000000000000000000000000000815260040161050c90612843565b60405180910390fd5b6000600460006001548152602001908152602001600020905060015481600001819055508381600101908161054a9190612a6f565b5082816002019080519060200190610563929190611bac565b5081816004018190555060018160050160006101000a81548160ff021916908315150217905550825167ffffffffffffffff8111156105a5576105a4611d02565b5b6040519080825280602002602001820160405280156105d35781602001602082028036833780820191505090505b508160030190805190602001906105eb929190611c05565b50600160008154809291906105ff90612b70565b91905055507f8225b3ad6e66d4c2342e977fbab464beaf3ae9d33b222938cff268dfd7b55b83816000015485604051610639929190612bb8565b60405180910390a150505050565b600260205280600052604060002060009150905080600001805461066a90612892565b80601f016020809104026020016040519081016040528092919081815260200182805461069690612892565b80156106e35780601f106106b8576101008083540402835291602001916106e3565b820191906000526020600020905b8154815290600101906020018083116106c657829003601f168201915b5050505050908060010160009054906101000a900460ff16905082565b6000600154905090565b6000600260008373ffffffffffffffffffffffffffffffffffffffff1673ffffffffffffffffffffffffffffffffffffffff16815260200190815260200160002060010160009054906101000a900460ff169050919050565b6000806002811115610778576107776120de565b5b600260008473ffffffffffffffffffffffffffffffffffffffff1673ffffffffffffffffffffffffffffffffffffffff16815260200190815260200160002060010160009054906101000a900460ff1660028111156107da576107d96120de565b5b1415801561084657506004600084815260200190815260200160002060060160008373ffffffffffffffffffffffffffffffffffffffff1673ffffffffffffffffffffffffffffffffffffffff16815260200190815260200160002060009054906101000a900460ff16155b905092915050565b60016002811115610862576108616120de565b5b600260003373ffffffffffffffffffffffffffffffffffffffff1673ffffffffffffffffffffffffffffffffffffffff16815260200190815260200160002060010160009054906101000a900460ff1660028111156108c4576108c36120de565b5b14610904576040517f08c379a00000000000000000000000000000000000000000000000000000000081526004016108fb90612745565b60405180910390fd5b60006002811115610918576109176120de565b5b600260008573ffffffffffffffffffffffffffffffffffffffff1673ffffffffffffffffffffffffffffffffffffffff16815260200190815260200160002060010160009054906101000a900460ff16600281111561097a576109796120de565b5b146109ba576040517f08c379a00000000000000000000000000000000000000000000000000000000081526004016109b190612c34565b60405180910390fd5b60405180604001604052808381526020018260028111156109de576109dd6120de565b5b815250600260008573ffffffffffffffffffffffffffffffffffffffff1673ffffffffffffffffffffffffffffffffffffffff1681526020019081526020016000206000820151816000019081610a359190612a6f565b5060208201518160010160006101000a81548160ff02191690836002811115610a6157610a606120de565b5b02179055509050506005839080600181540180825580915050600190039060005260206000200160009091909190916101000a81548173ffffffffffffffffffffffffffffffffffffffff021916908373ffffffffffffffffffffffffffffffffffffffff1602179055507f8897d4c16f6b907647cc92f3b2f80418ac81581b8e74f9dda595d3910b44c862838383604051610aff93929190612c54565b60405180910390a160016002811115610b1b57610b1a6120de565b5b816002811115610b2e57610b2d6120de565b5b03610b8c576001600360008573ffffffffffffffffffffffffffffffffffffffff1673ffffffffffffffffffffffffffffffffffffffff16815260200190815260200160002060006101000a81548160ff0219169083151502179055505b505050565b60036020528060005260406000206000915054906101000a900460ff1681565b60058181548110610bc157600080fd5b906000526020600020016000915054906101000a900473ffffffffffffffffffffffffffffffffffffffff1681565b600060608060606000806000600460008981526020019081526020016000209050806000015481600101826002018360030184600401548560050160009054906101000a900460ff16848054610c4590612892565b80601f0160208091040260200160405190810160405280929190818152602001828054610c7190612892565b8015610cbe5780601f10610c9357610100808354040283529160200191610cbe565b820191906000526020600020905b815481529060010190602001808311610ca157829003601f168201915b5050505050945083805480602002602001604051908101604052809291908181526020016000905b82821015610d92578382906000526020600020018054610d0590612892565b80601f0160208091040260200160405190810160405280929190818152602001828054610d3190612892565b8015610d7e5780601f10610d5357610100808354040283529160200191610d7e565b820191906000526020600020905b815481529060010190602001808311610d6157829003601f168201915b505050505081526020019060010190610ce6565b50505050935082805480602002602001604051908101604052809291908181526020018280548015610de357602002820191906000526020600020905b815481526020019060010190808311610dcf575b505050505092509650965096509650965096505091939550919395565b6004602052806000526040600020600091509050806000015490806001018054610e2990612892565b80601f0160208091040260200160405190810160405280929190818152602001828054610e5590612892565b8015610ea25780601f10610e7757610100808354040283529160200191610ea2565b820191906000526020600020905b815481529060010190602001808311610e8557829003601f168201915b5050505050908060040154908060050160009054906101000a900460ff16905084565b60016002811115610ed957610ed86120de565b5b600260003373ffffffffffffffffffffffffffffffffffffffff1673ffffffffffffffffffffffffffffffffffffffff16815260200190815260200160002060010160009054906101000a900460ff166002811115610f3b57610f3a6120de565b5b14610f7b576040517f08c379a0000000000000000000000000000000000000000000000000000000008152600401610f7290612745565b60405180910390fd5b60006004600083815260200190815260200160002090508060050160009054906101000a900460ff16610fe3576040517f08c379a0000000000000000000000000000000000000000000000000000000008152600401610fda90612cde565b60405180910390fd5b60008160050160006101000a81548160ff0219169083151502179055507fbc12589e76c0d59fd5a7c6f642c154830f0b46718b5ac07d1a0bdf29e124cbd88260405161102f9190612194565b60405180910390a15050565b60008054906101000a900473ffffffffffffffffffffffffffffffffffffffff1681565b60016002811115611073576110726120de565b5b600260003373ffffffffffffffffffffffffffffffffffffffff1673ffffffffffffffffffffffffffffffffffffffff16815260200190815260200160002060010160009054906101000a900460ff1660028111156110d5576110d46120de565b5b14611115576040517f08c379a000000000000000000000000000000000000000000000000000000000815260040161110c90612745565b60405180910390fd5b60006002811115611129576111286120de565b5b600260008373ffffffffffffffffffffffffffffffffffffffff1673ffffffffffffffffffffffffffffffffffffffff16815260200190815260200160002060010160009054906101000a900460ff16600281111561118b5761118a6120de565b5b036111cb576040517f08c379a00000000000000000000000000000000000000000000000000000000081526004016111c290612d4a565b60405180910390fd5b600260008273ffffffffffffffffffffffffffffffffffffffff1673ffffffffffffffffffffffffffffffffffffffff1681526020019081526020016000206000808201600061121b9190611c52565b6001820160006101000a81549060ff0219169055505060005b6005805490508110156113b7578173ffffffffffffffffffffffffffffffffffffffff166005828154811061126c5761126b612d6a565b5b9060005260206000200160009054906101000a900473ffffffffffffffffffffffffffffffffffffffff1673ffffffffffffffffffffffffffffffffffffffff16036113aa57600560016005805490506112c69190612d99565b815481106112d7576112d6612d6a565b5b9060005260206000200160009054906101000a900473ffffffffffffffffffffffffffffffffffffffff166005828154811061131657611315612d6a565b5b9060005260206000200160006101000a81548173ffffffffffffffffffffffffffffffffffffffff021916908373ffffffffffffffffffffffffffffffffffffffff16021790555060058054806113705761136f612dcd565b5b6001900381819060005260206000200160006101000a81549073ffffffffffffffffffffffffffffffffffffffff021916905590556113b7565b8080600101915050611234565b507fe9dce8c992623ce791725b21e857e33248d1f190a25b5168313420eebdaae99d816040516113e79190612310565b60405180910390a150565b60006002811115611406576114056120de565b5b600260003373ffffffffffffffffffffffffffffffffffffffff1673ffffffffffffffffffffffffffffffffffffffff16815260200190815260200160002060010160009054906101000a900460ff166002811115611468576114676120de565b5b036114a8576040517f08c379a000000000000000000000000000000000000000000000000000000000815260040161149f90612e48565b60405180910390fd5b60006004600084815260200190815260200160002090508060050160009054906101000a900460ff16611510576040517f08c379a000000000000000000000000000000000000000000000000000000000815260040161150790612eb4565b60405180910390fd5b8060040154421115611557576040517f08c379a000000000000000000000000000000000000000000000000000000000815260040161154e90612f20565b60405180910390fd5b8060060160003373ffffffffffffffffffffffffffffffffffffffff1673ffffffffffffffffffffffffffffffffffffffff16815260200190815260200160002060009054906101000a900460ff16156115e6576040517f08c379a00000000000000000000000000000000000000000000000000000000081526004016115dd90612f8c565b60405180910390fd5b8060020180549050821061162f576040517f08c379a000000000000000000000000000000000000000000000000000000000815260040161162690612ff8565b60405180910390fd5b80600301828154811061164557611644612d6a565b5b90600052602060002001600081548092919061166090612b70565b919050555060018160060160003373ffffffffffffffffffffffffffffffffffffffff1673ffffffffffffffffffffffffffffffffffffffff16815260200190815260200160002060006101000a81548160ff0219169083151502179055507f1abe610cf2bf87e57dcc1181fcf5ac0934e843d8344ab9eed6e86c799f62585e8333846040516116f293929190613018565b60405180910390a1505050565b60015481565b60606000600281111561171b5761171a6120de565b5b600260008473ffffffffffffffffffffffffffffffffffffffff1673ffffffffffffffffffffffffffffffffffffffff16815260200190815260200160002060010160009054906101000a900460ff16600281111561177d5761177c6120de565b5b036117bd576040517f08c379a00000000000000000000000000000000000000000000000000000000081526004016117b49061309b565b60405180910390fd5b600260008373ffffffffffffffffffffffffffffffffffffffff1673ffffffffffffffffffffffffffffffffffffffff168152602001908152602001600020600001805461180a90612892565b80601f016020809104026020016040519081016040528092919081815260200182805461183690612892565b80156118835780601f1061185857610100808354040283529160200191611883565b820191906000526020600020905b81548152906001019060200180831161186657829003601f168201915b50505050509050919050565b60006004600084815260200190815260200160002060060160008373ffffffffffffffffffffffffffffffffffffffff1673ffffffffffffffffffffffffffffffffffffffff16815260200190815260200160002060009054906101000a900460ff16905092915050565b60606000805b6005805490508110156119e25760006002811115611921576119206120de565b5b600260006005848154811061193957611938612d6a565b5b9060005260206000200160009054906101000a900473ffffffffffffffffffffffffffffffffffffffff1673ffffffffffffffffffffffffffffffffffffffff1673ffffffffffffffffffffffffffffffffffffffff16815260200190815260200160002060010160009054906101000a900460ff1660028111156119c1576119c06120de565b5b146119d55781806119d190612b70565b9250505b8080600101915050611900565b5060008167ffffffffffffffff8111156119ff576119fe611d02565b5b604051908082528060200260200182016040528015611a2d5781602001602082028036833780820191505090505b5090506000805b600580549050811015611ba25760006002811115611a5557611a546120de565b5b6002600060058481548110611a6d57611a6c612d6a565b5b9060005260206000200160009054906101000a900473ffffffffffffffffffffffffffffffffffffffff1673ffffffffffffffffffffffffffffffffffffffff1673ffffffffffffffffffffffffffffffffffffffff16815260200190815260200160002060010160009054906101000a900460ff166002811115611af557611af46120de565b5b14611b955760058181548110611b0e57611b0d612d6a565b5b9060005260206000200160009054906101000a900473ffffffffffffffffffffffffffffffffffffffff16838381518110611b4c57611b4b612d6a565b5b602002602001019073ffffffffffffffffffffffffffffffffffffffff16908173ffffffffffffffffffffffffffffffffffffffff16815250508180611b9190612b70565b9250505b8080600101915050611a34565b5081935050505090565b828054828255906000526020600020908101928215611bf4579160200282015b82811115611bf3578251829081611be39190612a6f565b5091602001919060010190611bcc565b5b509050611c019190611c92565b5090565b828054828255906000526020600020908101928215611c41579160200282015b82811115611c40578251825591602001919060010190611c25565b5b509050611c4e9190611cb6565b5090565b508054611c5e90612892565b6000825580601f10611c705750611c8f565b601f016020900490600052602060002090810190611c8e9190611cb6565b5b50565b5b80821115611cb25760008181611ca99190611c52565b50600101611c93565b5090565b5b80821115611ccf576000816000905550600101611cb7565b5090565b6000604051905090565b600080fd5b600080fd5b600080fd5b600080fd5b6000601f19601f8301169050919050565b7f4e487b7100000000000000000000000000000000000000000000000000000000600052604160045260246000fd5b611d3a82611cf1565b810181811067ffffffffffffffff82111715611d5957611d58611d02565b5b80604052505050565b6000611d6c611cd3565b9050611d788282611d31565b919050565b600067ffffffffffffffff821115611d9857611d97611d02565b5b611da182611cf1565b9050602081019050919050565b82818337600083830152505050565b6000611dd0611dcb84611d7d565b611d62565b905082815260208101848484011115611dec57611deb611cec565b5b611df7848285611dae565b509392505050565b600082601f830112611e1457611e13611ce7565b5b8135611e24848260208601611dbd565b91505092915050565b600067ffffffffffffffff821115611e4857611e47611d02565b5b602082029050602081019050919050565b600080fd5b6000611e71611e6c84611e2d565b611d62565b90508083825260208201905060208402830185811115611e9457611e93611e59565b5b835b81811015611edb57803567ffffffffffffffff811115611eb957611eb8611ce7565b5b808601611ec68982611dff565b85526020850194505050602081019050611e96565b5050509392505050565b600082601f830112611efa57611ef9611ce7565b5b8135611f0a848260208601611e5e565b91505092915050565b6000819050919050565b611f2681611f13565b8114611f3157600080fd5b50565b600081359050611f4381611f1d565b92915050565b600080600060608486031215611f6257611f61611cdd565b5b600084013567ffffffffffffffff811115611f8057611f7f611ce2565b5b611f8c86828701611dff565b935050602084013567ffffffffffffffff811115611fad57611fac611ce2565b5b611fb986828701611ee5565b9250506040611fca86828701611f34565b9150509250925092565b600073ffffffffffffffffffffffffffffffffffffffff82169050919050565b6000611fff82611fd4565b9050919050565b61200f81611ff4565b811461201a57600080fd5b50565b60008135905061202c81612006565b92915050565b60006020828403121561204857612047611cdd565b5b60006120568482850161201d565b91505092915050565b600081519050919050565b600082825260208201905092915050565b60005b8381101561209957808201518184015260208101905061207e565b60008484015250505050565b60006120b08261205f565b6120ba818561206a565b93506120ca81856020860161207b565b6120d381611cf1565b840191505092915050565b7f4e487b7100000000000000000000000000000000000000000000000000000000600052602160045260246000fd5b6003811061211e5761211d6120de565b5b50565b600081905061212f8261210d565b919050565b600061213f82612121565b9050919050565b61214f81612134565b82525050565b6000604082019050818103600083015261216f81856120a5565b905061217e6020830184612146565b9392505050565b61218e81611f13565b82525050565b60006020820190506121a96000830184612185565b92915050565b60006020820190506121c46000830184612146565b92915050565b600080604083850312156121e1576121e0611cdd565b5b60006121ef85828601611f34565b92505060206122008582860161201d565b9150509250929050565b60008115159050919050565b61221f8161220a565b82525050565b600060208201905061223a6000830184612216565b92915050565b6003811061224d57600080fd5b50565b60008135905061225f81612240565b92915050565b60008060006060848603121561227e5761227d611cdd565b5b600061228c8682870161201d565b935050602084013567ffffffffffffffff8111156122ad576122ac611ce2565b5b6122b986828701611dff565b92505060406122ca86828701612250565b9150509250925092565b6000602082840312156122ea576122e9611cdd565b5b60006122f884828501611f34565b91505092915050565b61230a81611ff4565b82525050565b60006020820190506123256000830184612301565b92915050565b600081519050919050565b600082825260208201905092915050565b6000819050602082019050919050565b600082825260208201905092915050565b60006123738261205f565b61237d8185612357565b935061238d81856020860161207b565b61239681611cf1565b840191505092915050565b60006123ad8383612368565b905092915050565b6000602082019050919050565b60006123cd8261232b565b6123d78185612336565b9350836020820285016123e985612347565b8060005b85811015612425578484038952815161240685826123a1565b9450612411836123b5565b925060208a019950506001810190506123ed565b50829750879550505050505092915050565b600081519050919050565b600082825260208201905092915050565b6000819050602082019050919050565b61246c81611f13565b82525050565b600061247e8383612463565b60208301905092915050565b6000602082019050919050565b60006124a282612437565b6124ac8185612442565b93506124b783612453565b8060005b838110156124e85781516124cf8882612472565b97506124da8361248a565b9250506001810190506124bb565b5085935050505092915050565b600060c08201905061250a6000830189612185565b818103602083015261251c81886120a5565b9050818103604083015261253081876123c2565b905081810360608301526125448186612497565b90506125536080830185612185565b61256060a0830184612216565b979650505050505050565b60006080820190506125806000830187612185565b818103602083015261259281866120a5565b90506125a16040830185612185565b6125ae6060830184612216565b95945050505050565b600080604083850312156125ce576125cd611cdd565b5b60006125dc85828601611f34565b92505060206125ed85828601611f34565b9150509250929050565b6000602082019050818103600083015261261181846120a5565b905092915050565b600081519050919050565b600082825260208201905092915050565b6000819050602082019050919050565b61264e81611ff4565b82525050565b60006126608383612645565b60208301905092915050565b6000602082019050919050565b600061268482612619565b61268e8185612624565b935061269983612635565b8060005b838110156126ca5781516126b18882612654565b97506126bc8361266c565b92505060018101905061269d565b5085935050505092915050565b600060208201905081810360008301526126f18184612679565b905092915050565b7f4e6f742061206d616e6167657200000000000000000000000000000000000000600082015250565b600061272f600d8361206a565b915061273a826126f9565b602082019050919050565b6000602082019050818103600083015261275e81612722565b9050919050565b7f4174206c656173742074776f206f7074696f6e73207265717569726564000000600082015250565b600061279b601d8361206a565b91506127a682612765565b602082019050919050565b600060208201905081810360008301526127ca8161278e565b9050919050565b7f436c6f73696e672064617465206d75737420626520696e20746865206675747560008201527f7265000000000000000000000000000000000000000000000000000000000000602082015250565b600061282d60228361206a565b9150612838826127d1565b604082019050919050565b6000602082019050818103600083015261285c81612820565b9050919050565b7f4e487b7100000000000000000000000000000000000000000000000000000000600052602260045260246000fd5b600060028204905060018216806128aa57607f821691505b6020821081036128bd576128bc612863565b5b50919050565b60008190508160005260206000209050919050565b60006020601f8301049050919050565b600082821b905092915050565b6000600883026129257fffffffffffffffffffffffffffffffffffffffffffffffffffffffffffffffff826128e8565b61292f86836128e8565b95508019841693508086168417925050509392505050565b6000819050919050565b600061296c61296761296284611f13565b612947565b611f13565b9050919050565b6000819050919050565b61298683612951565b61299a61299282612973565b8484546128f5565b825550505050565b600090565b6129af6129a2565b6129ba81848461297d565b505050565b5b818110156129de576129d36000826129a7565b6001810190506129c0565b5050565b601f821115612a23576129f4816128c3565b6129fd846128d8565b81016020851015612a0c578190505b612a20612a18856128d8565b8301826129bf565b50505b505050565b600082821c905092915050565b6000612a4660001984600802612a28565b1980831691505092915050565b6000612a5f8383612a35565b9150826002028217905092915050565b612a788261205f565b67ffffffffffffffff811115612a9157612a90611d02565b5b612a9b8254612892565b612aa68282856129e2565b600060209050601f831160018114612ad95760008415612ac7578287015190505b612ad18582612a53565b865550612b39565b601f198416612ae7866128c3565b60005b82811015612b0f57848901518255600182019150602085019450602081019050612aea565b86831015612b2c5784890151612b28601f891682612a35565b8355505b6001600288020188555050505b505050505050565b7f4e487b7100000000000000000000000000000000000000000000000000000000600052601160045260246000fd5b6000612b7b82611f13565b91507fffffffffffffffffffffffffffffffffffffffffffffffffffffffffffffffff8203612bad57612bac612b41565b5b600182019050919050565b6000604082019050612bcd6000830185612185565b8181036020830152612bdf81846120a5565b90509392505050565b7f5573657220616c72656164792065786973747300000000000000000000000000600082015250565b6000612c1e60138361206a565b9150612c2982612be8565b602082019050919050565b60006020820190508181036000830152612c4d81612c11565b9050919050565b6000606082019050612c696000830186612301565b8181036020830152612c7b81856120a5565b9050612c8a6040830184612146565b949350505050565b7f566f746520616c726561647920636c6f73656400000000000000000000000000600082015250565b6000612cc860138361206a565b9150612cd382612c92565b602082019050919050565b60006020820190508181036000830152612cf781612cbb565b9050919050565b7f5573657220646f6573206e6f7420657869737400000000000000000000000000600082015250565b6000612d3460138361206a565b9150612d3f82612cfe565b602082019050919050565b60006020820190508181036000830152612d6381612d27565b9050919050565b7f4e487b7100000000000000000000000000000000000000000000000000000000600052603260045260246000fd5b6000612da482611f13565b9150612daf83611f13565b9250828203905081811115612dc757612dc6612b41565b5b92915050565b7f4e487b7100000000000000000000000000000000000000000000000000000000600052603160045260246000fd5b7f4e6f7420617574686f72697a6564000000000000000000000000000000000000600082015250565b6000612e32600e8361206a565b9150612e3d82612dfc565b602082019050919050565b60006020820190508181036000830152612e6181612e25565b9050919050565b7f566f746520697320636c6f736564000000000000000000000000000000000000600082015250565b6000612e9e600e8361206a565b9150612ea982612e68565b602082019050919050565b60006020820190508181036000830152612ecd81612e91565b9050919050565b7f566f74696e6720706572696f642068617320656e646564000000000000000000600082015250565b6000612f0a60178361206a565b9150612f1582612ed4565b602082019050919050565b60006020820190508181036000830152612f3981612efd565b9050919050565b7f416c726561647920766f74656420696e207468697320766f7465000000000000600082015250565b6000612f76601a8361206a565b9150612f8182612f40565b602082019050919050565b60006020820190508181036000830152612fa581612f69565b9050919050565b7f496e76616c6964206f7074696f6e000000000000000000000000000000000000600082015250565b6000612fe2600e8361206a565b9150612fed82612fac565b602082019050919050565b6000602082019050818103600083015261301181612fd5565b9050919050565b600060608201905061302d6000830186612185565b61303a6020830185612301565b6130476040830184612185565b949350505050565b7f55736572206e6f7420666f756e64000000000000000000000000000000000000600082015250565b6000613085600e8361206a565b91506130908261304f565b602082019050919050565b600060208201905081810360008301526130b481613078565b905091905056fea264697066735822122069c9a7c8abfb91a06f28f1e26b18fd94efd32b8eb56cb168c105bcdb31190ab664736f6c634300081b0033",
  "linkReferences": {},
  "deployedLinkReferences": {}
}