{
  "_format": "hh-sol-artifact-1",
  "contractName": "VotingSystem",
  "sourceName": "contracts/VotingSystem.sol",
  "abi": [
    {
      "inputs": [],
      "stateMutability": "nonpayable",
      "type": "constructor"
    },
    {
      "anonymous": false,
      "inputs": [
        {
          "indexed": false,
          "internalType": "address",
          "name": "user",
          "type": "address"
        },
        {
          "indexed": false,
          "internalType": "string",
          "name": "username",
          "type": "string"
        },
        {
          "indexed": false,
          "internalType": "enum VotingSystem.Role",
          "name": "role",
          "type": "uint8"
        }
      ],
      "name": "UserAdded",
      "type": "event"
    },
    {
      "anonymous": false,
      "inputs": [
        {
          "indexed": false,
          "internalType": "address",
          "name": "user",
          "type": "address"
        }
      ],
      "name": "UserRemoved",
      "type": "event"
    },
    {
      "anonymous": false,
      "inputs": [
        {
          "indexed": false,
          "internalType": "uint256",
          "name": "voteId",
          "type": "uint256"
        }
      ],
      "name": "VoteClosed",
      "type": "event"
    },
    {
      "anonymous": false,
      "inputs": [
        {
          "indexed": false,
          "internalType": "uint256",
          "name": "voteId",
          "type": "uint256"
        },
        {
          "indexed": false,
          "internalType": "string",
          "name": "question",
          "type": "string"
        }
      ],
      "name": "VoteCreated",
      "type": "event"
    },
    {
      "anonymous": false,
      "inputs": [
        {
          "indexed": false,
          "internalType": "uint256",
          "name": "voteId",
          "type": "uint256"
        },
        {
          "indexed": false,
          "internalType": "address",
          "name": "voter",
          "type": "address"
        },
        {
          "indexed": false,
          "internalType": "uint256",
          "name": "option",
          "type": "uint256"
        }
      ],
      "name": "Voted",
      "type": "event"
    },
    {
      "inputs": [
        {
          "internalType": "address",
          "name": "_user",
          "type": "address"
        },
        {
          "internalType": "string",
          "name": "_username",
          "type": "string"
        },
        {
          "internalType": "enum VotingSystem.Role",
          "name": "_role",
          "type": "uint8"
        }
      ],
      "name": "addUser",
      "outputs": [],
      "stateMutability": "nonpayable",
      "type": "function"
    },
    {
      "inputs": [
        {
          "internalType": "address",
          "name": "",
          "type": "address"
        }
      ],
      "name": "admins",
      "outputs": [
        {
          "internalType": "bool",
          "name": "",
          "type": "bool"
        }
      ],
      "stateMutability": "view",
      "type": "function"
    },
    {
      "inputs": [
        {
          "internalType": "address",
          "name": "",
          "type": "address"
        }
      ],
      "name": "authorizedUsers",
      "outputs": [
        {
          "internalType": "string",
          "name": "username",
          "type": "string"
        },
        {
          "internalType": "enum VotingSystem.Role",
          "name": "role",
          "type": "uint8"
        }
      ],
      "stateMutability": "view",
      "type": "function"
    },
    {
      "inputs": [
        {
          "internalType": "uint256",
          "name": "_voteId",
          "type": "uint256"
        }
      ],
      "name": "closeVote",
      "outputs": [],
      "stateMutability": "nonpayable",
      "type": "function"
    },
    {
      "inputs": [
        {
          "internalType": "string",
          "name": "_question",
          "type": "string"
        },
        {
          "internalType": "string[]",
          "name": "_options",
          "type": "string[]"
        },
        {
          "internalType": "uint256",
          "name": "_closingDate",
          "type": "uint256"
        }
      ],
      "name": "createVote",
      "outputs": [],
      "stateMutability": "nonpayable",
      "type": "function"
    },
    {
      "inputs": [],
      "name": "getAllUsers",
      "outputs": [
        {
          "internalType": "address[]",
          "name": "",
          "type": "address[]"
        }
      ],
      "stateMutability": "view",
      "type": "function"
    },
    {
      "inputs": [
        {
          "internalType": "address",
          "name": "_user",
          "type": "address"
        }
      ],
      "name": "getUserRole",
      "outputs": [
        {
          "internalType": "enum VotingSystem.Role",
          "name": "",
          "type": "uint8"
        }
      ],
      "stateMutability": "view",
      "type": "function"
    },
    {
      "inputs": [
        {
          "internalType": "address",
          "name": "_user",
          "type": "address"
        }
      ],
      "name": "getUsername",
      "outputs": [
        {
          "internalType": "string",
          "name": "",
          "type": "string"
        }
      ],
      "stateMutability": "view",
      "type": "function"
    },
    {
      "inputs": [
        {
          "internalType": "uint256",
          "name": "_voteId",
          "type": "uint256"
        }
      ],
      "name": "getVoteDetails",
      "outputs": [
        {
          "internalType": "uint256",
          "name": "id",
          "type": "uint256"
        },
        {
          "internalType": "string",
          "name": "question",
          "type": "string"
        },
        {
          "internalType": "string[]",
          "name": "options",
          "type": "string[]"
        },
        {
          "internalType": "uint256[]",
          "name": "votesPerOption",
          "type": "uint256[]"
        },
        {
          "internalType": "uint256",
          "name": "closingDate",
          "type": "uint256"
        },
        {
          "internalType": "bool",
          "name": "isOpen",
          "type": "bool"
        }
      ],
      "stateMutability": "view",
      "type": "function"
    },
    {
      "inputs": [],
      "name": "getVotesCount",
      "outputs": [
        {
          "internalType": "uint256",
          "name": "",
          "type": "uint256"
        }
      ],
      "stateMutability": "view",
      "type": "function"
    },
    {
      "inputs": [
        {
          "internalType": "uint256",
          "name": "_voteId",
          "type": "uint256"
        },
        {
          "internalType": "address",
          "name": "_user",
          "type": "address"
        }
      ],
      "name": "hasUserVoted",
      "outputs": [
        {
          "internalType": "bool",
          "name": "",
          "type": "bool"
        }
      ],
      "stateMutability": "view",
      "type": "function"
    },
    {
      "inputs": [
        {
          "internalType": "uint256",
          "name": "_voteId",
          "type": "uint256"
        },
        {
          "internalType": "address",
          "name": "_user",
          "type": "address"
        }
      ],
      "name": "isUserAuthorized",
      "outputs": [
        {
          "internalType": "bool",
          "name": "",
          "type": "bool"
        }
      ],
      "stateMutability": "view",
      "type": "function"
    },
    {
      "inputs": [],
      "name": "owner",
      "outputs": [
        {
          "internalType": "address",
          "name": "",
          "type": "address"
        }
      ],
      "stateMutability": "view",
      "type": "function"
    },
    {
      "inputs": [
        {
          "internalType": "address",
          "name": "_user",
          "type": "address"
        }
      ],
      "name": "removeUser",
      "outputs": [],
      "stateMutability": "nonpayable",
      "type": "function"
    },
    {
      "inputs": [
        {
          "internalType": "uint256",
          "name": "",
          "type": "uint256"
        }
      ],
      "name": "userAddresses",
      "outputs": [
        {
          "internalType": "address",
          "name": "",
          "type": "address"
        }
      ],
      "stateMutability": "view",
      "type": "function"
    },
    {
      "inputs": [
        {
          "internalType": "uint256",
          "name": "_voteId",
          "type": "uint256"
        },
        {
          "internalType": "uint256",
          "name": "_optionIndex",
          "type": "uint256"
        }
      ],
      "name": "vote",
      "outputs": [],
      "stateMutability": "nonpayable",
      "type": "function"
    },
    {
      "inputs": [],
      "name": "voteCount",
      "outputs": [
        {
          "internalType": "uint256",
          "name": "",
          "type": "uint256"
        }
      ],
      "stateMutability": "view",
      "type": "function"
    },
    {
      "inputs": [
        {
          "internalType": "uint256",
          "name": "",
          "type": "uint256"
        }
      ],
      "name": "votes",
      "outputs": [
        {
          "internalType": "uint256",
          "name": "id",
          "type": "uint256"
        },
        {
          "internalType": "string",
          "name": "question",
          "type": "string"
        },
        {
          "internalType": "uint256",
          "name": "closingDate",
          "type": "uint256"
        },
        {
          "internalType": "bool",
          "name": "isOpen",
          "type": "bool"
        }
      ],
      "stateMutability": "view",
      "type": "function"
    }
  ],
  "bytecode": "0x608060405234801561001057600080fd5b50336000806101000a81548173ffffffffffffffffffffffffffffffffffffffff021916908373ffffffffffffffffffffffffffffffffffffffff16021790555060405180604001604052806040518060400160405280600581526020017f4f776e65720000000000000000000000000000000000000000000000000000008152508152602001600160028111156100ab576100aa6101f6565b5b815250600260003373ffffffffffffffffffffffffffffffffffffffff1673ffffffffffffffffffffffffffffffffffffffff16815260200190815260200160002060008201518160000190816101029190610475565b5060208201518160010160006101000a81548160ff0219169083600281111561012e5761012d6101f6565b5b02179055509050506001600360003373ffffffffffffffffffffffffffffffffffffffff1673ffffffffffffffffffffffffffffffffffffffff16815260200190815260200160002060006101000a81548160ff0219169083151502179055506005339080600181540180825580915050600190039060005260206000200160009091909190916101000a81548173ffffffffffffffffffffffffffffffffffffffff021916908373ffffffffffffffffffffffffffffffffffffffff160217905550610547565b7f4e487b7100000000000000000000000000000000000000000000000000000000600052602160045260246000fd5b600081519050919050565b7f4e487b7100000000000000000000000000000000000000000000000000000000600052604160045260246000fd5b7f4e487b7100000000000000000000000000000000000000000000000000000000600052602260045260246000fd5b600060028204905060018216806102a657607f821691505b6020821081036102b9576102b861025f565b5b50919050565b60008190508160005260206000209050919050565b60006020601f8301049050919050565b600082821b905092915050565b6000600883026103217fffffffffffffffffffffffffffffffffffffffffffffffffffffffffffffffff826102e4565b61032b86836102e4565b95508019841693508086168417925050509392505050565b6000819050919050565b6000819050919050565b600061037261036d61036884610343565b61034d565b610343565b9050919050565b6000819050919050565b61038c83610357565b6103a061039882610379565b8484546102f1565b825550505050565b600090565b6103b56103a8565b6103c0818484610383565b505050565b5b818110156103e4576103d96000826103ad565b6001810190506103c6565b5050565b601f821115610429576103fa816102bf565b610403846102d4565b81016020851015610412578190505b61042661041e856102d4565b8301826103c5565b50505b505050565b600082821c905092915050565b600061044c6000198460080261042e565b1980831691505092915050565b6000610465838361043b565b9150826002028217905092915050565b61047e82610225565b67ffffffffffffffff81111561049757610496610230565b5b6104a1825461028e565b6104ac8282856103e8565b600060209050601f8311600181146104df57600084156104cd578287015190505b6104d78582610459565b86555061053f565b601f1984166104ed866102bf565b60005b82811015610515578489015182556001820191506020850194506020810190506104f0565b86831015610532578489015161052e601f89168261043b565b8355505b6001600288020188555050505b505050505050565b612ce3806105566000396000f3fe608060405234801561001057600080fd5b50600436106101165760003560e01c80635df81330116100a2578063b384abef11610071578063b384abef14610320578063c63840711461033c578063ce43c0321461035a578063dc296ae11461038a578063e2842d79146103ba57610116565b80635df81330146102975780636e48a035146102ca5780638da5cb5b146102e6578063985751881461030457610116565b80633c192689116100e95780633c192689146101b657806340d26854146101e6578063429b62e514610202578063502c9bd51461023257806354a1b4311461026257610116565b806315dd015e1461011b5780631828983a146101375780631b605b86146101685780632782085114610186575b600080fd5b61013560048036038101906101309190611b9e565b6103d8565b005b610151600480360381019061014c9190611c87565b610647565b60405161015f929190611daa565b60405180910390f35b610170610700565b60405161017d9190611de9565b60405180910390f35b6101a0600480360381019061019b9190611c87565b61070a565b6040516101ad9190611e04565b60405180910390f35b6101d060048036038101906101cb9190611e1f565b610763565b6040516101dd9190611e7a565b60405180910390f35b61020060048036038101906101fb9190611eba565b61084e565b005b61021c60048036038101906102179190611c87565b610b91565b6040516102299190611e7a565b60405180910390f35b61024c60048036038101906102479190611f29565b610bb1565b6040516102599190611f65565b60405180910390f35b61027c60048036038101906102779190611f29565b610bf0565b60405161028e9695949392919061214a565b60405180910390f35b6102b160048036038101906102ac9190611f29565b610e00565b6040516102c194939291906121c0565b60405180910390f35b6102e460048036038101906102df9190611f29565b610ec5565b005b6102ee61103b565b6040516102fb9190611f65565b60405180910390f35b61031e60048036038101906103199190611c87565b61105f565b005b61033a6004803603810190610335919061220c565b61126b565b005b610344611578565b6040516103519190611de9565b60405180910390f35b610374600480360381019061036f9190611c87565b61157e565b604051610381919061224c565b60405180910390f35b6103a4600480360381019061039f9190611e1f565b611708565b6040516103b19190611e7a565b60405180910390f35b6103c2611773565b6040516103cf919061232c565b60405180910390f35b600160028111156103ec576103eb611d33565b5b600260003373ffffffffffffffffffffffffffffffffffffffff1673ffffffffffffffffffffffffffffffffffffffff16815260200190815260200160002060010160009054906101000a900460ff16600281111561044e5761044d611d33565b5b1461048e576040517f08c379a00000000000000000000000000000000000000000000000000000000081526004016104859061239a565b60405180910390fd5b6002825110156104d3576040517f08c379a00000000000000000000000000000000000000000000000000000000081526004016104ca90612406565b60405180910390fd5b428111610515576040517f08c379a000000000000000000000000000000000000000000000000000000000815260040161050c90612498565b60405180910390fd5b6000600460006001548152602001908152602001600020905060015481600001819055508381600101908161054a91906126c4565b5082816002019080519060200190610563929190611801565b5081816004018190555060018160050160006101000a81548160ff021916908315150217905550825167ffffffffffffffff8111156105a5576105a4611957565b5b6040519080825280602002602001820160405280156105d35781602001602082028036833780820191505090505b508160030190805190602001906105eb92919061185a565b50600160008154809291906105ff906127c5565b91905055507f8225b3ad6e66d4c2342e977fbab464beaf3ae9d33b222938cff268dfd7b55b8381600001548560405161063992919061280d565b60405180910390a150505050565b600260205280600052604060002060009150905080600001805461066a906124e7565b80601f0160208091040260200160405190810160405280929190818152602001828054610696906124e7565b80156106e35780601f106106b8576101008083540402835291602001916106e3565b820191906000526020600020905b8154815290600101906020018083116106c657829003601f168201915b5050505050908060010160009054906101000a900460ff16905082565b6000600154905090565b6000600260008373ffffffffffffffffffffffffffffffffffffffff1673ffffffffffffffffffffffffffffffffffffffff16815260200190815260200160002060010160009054906101000a900460ff169050919050565b600080600281111561077857610777611d33565b5b600260008473ffffffffffffffffffffffffffffffffffffffff1673ffffffffffffffffffffffffffffffffffffffff16815260200190815260200160002060010160009054906101000a900460ff1660028111156107da576107d9611d33565b5b1415801561084657506004600084815260200190815260200160002060060160008373ffffffffffffffffffffffffffffffffffffffff1673ffffffffffffffffffffffffffffffffffffffff16815260200190815260200160002060009054906101000a900460ff16155b905092915050565b6001600281111561086257610861611d33565b5b600260003373ffffffffffffffffffffffffffffffffffffffff1673ffffffffffffffffffffffffffffffffffffffff16815260200190815260200160002060010160009054906101000a900460ff1660028111156108c4576108c3611d33565b5b14610904576040517f08c379a00000000000000000000000000000000000000000000000000000000081526004016108fb9061239a565b60405180910390fd5b6000600281111561091857610917611d33565b5b600260008573ffffffffffffffffffffffffffffffffffffffff1673ffffffffffffffffffffffffffffffffffffffff16815260200190815260200160002060010160009054906101000a900460ff16600281111561097a57610979611d33565b5b146109ba576040517f08c379a00000000000000000000000000000000000000000000000000000000081526004016109b190612889565b60405180910390fd5b60405180604001604052808381526020018260028111156109de576109dd611d33565b5b815250600260008573ffffffffffffffffffffffffffffffffffffffff1673ffffffffffffffffffffffffffffffffffffffff1681526020019081526020016000206000820151816000019081610a3591906126c4565b5060208201518160010160006101000a81548160ff02191690836002811115610a6157610a60611d33565b5b02179055509050506005839080600181540180825580915050600190039060005260206000200160009091909190916101000a81548173ffffffffffffffffffffffffffffffffffffffff021916908373ffffffffffffffffffffffffffffffffffffffff1602179055507f8897d4c16f6b907647cc92f3b2f80418ac81581b8e74f9dda595d3910b44c862838383604051610aff939291906128a9565b60405180910390a160016002811115610b1b57610b1a611d33565b5b816002811115610b2e57610b2d611d33565b5b03610b8c576001600360008573ffffffffffffffffffffffffffffffffffffffff1673ffffffffffffffffffffffffffffffffffffffff16815260200190815260200160002060006101000a81548160ff0219169083151502179055505b505050565b60036020528060005260406000206000915054906101000a900460ff1681565b60058181548110610bc157600080fd5b906000526020600020016000915054906101000a900473ffffffffffffffffffffffffffffffffffffffff1681565b600060608060606000806000600460008981526020019081526020016000209050806000015481600101826002018360030184600401548560050160009054906101000a900460ff16848054610c45906124e7565b80601f0160208091040260200160405190810160405280929190818152602001828054610c71906124e7565b8015610cbe5780601f10610c9357610100808354040283529160200191610cbe565b820191906000526020600020905b815481529060010190602001808311610ca157829003601f168201915b5050505050945083805480602002602001604051908101604052809291908181526020016000905b82821015610d92578382906000526020600020018054610d05906124e7565b80601f0160208091040260200160405190810160405280929190818152602001828054610d31906124e7565b8015610d7e5780601f10610d5357610100808354040283529160200191610d7e565b820191906000526020600020905b815481529060010190602001808311610d6157829003601f168201915b505050505081526020019060010190610ce6565b50505050935082805480602002602001604051908101604052809291908181526020018280548015610de357602002820191906000526020600020905b815481526020019060010190808311610dcf575b505050505092509650965096509650965096505091939550919395565b6004602052806000526040600020600091509050806000015490806001018054610e29906124e7565b80601f0160208091040260200160405190810160405280929190818152602001828054610e55906124e7565b8015610ea25780601f10610e7757610100808354040283529160200191610ea2565b820191906000526020600020905b815481529060010190602001808311610e8557829003601f168201915b5050505050908060040154908060050160009054906101000a900460ff16905084565b60016002811115610ed957610ed8611d33565b5b600260003373ffffffffffffffffffffffffffffffffffffffff1673ffffffffffffffffffffffffffffffffffffffff16815260200190815260200160002060010160009054906101000a900460ff166002811115610f3b57610f3a611d33565b5b14610f7b576040517f08c379a0000000000000000000000000000000000000000000000000000000008152600401610f729061239a565b60405180910390fd5b60006004600083815260200190815260200160002090508060050160009054906101000a900460ff16610fe3576040517f08c379a0000000000000000000000000000000000000000000000000000000008152600401610fda90612933565b60405180910390fd5b60008160050160006101000a81548160ff0219169083151502179055507fbc12589e76c0d59fd5a7c6f642c154830f0b46718b5ac07d1a0bdf29e124cbd88260405161102f9190611de9565b60405180910390a15050565b60008054906101000a900473ffffffffffffffffffffffffffffffffffffffff1681565b6001600281111561107357611072611d33565b5b600260003373ffffffffffffffffffffffffffffffffffffffff1673ffffffffffffffffffffffffffffffffffffffff16815260200190815260200160002060010160009054906101000a900460ff1660028111156110d5576110d4611d33565b5b14611115576040517f08c379a000000000000000000000000000000000000000000000000000000000815260040161110c9061239a565b60405180910390fd5b6000600281111561112957611128611d33565b5b600260008373ffffffffffffffffffffffffffffffffffffffff1673ffffffffffffffffffffffffffffffffffffffff16815260200190815260200160002060010160009054906101000a900460ff16600281111561118b5761118a611d33565b5b036111cb576040517f08c379a00000000000000000000000000000000000000000000000000000000081526004016111c29061299f565b60405180910390fd5b600260008273ffffffffffffffffffffffffffffffffffffffff1673ffffffffffffffffffffffffffffffffffffffff1681526020019081526020016000206000808201600061121b91906118a7565b6001820160006101000a81549060ff021916905550507fe9dce8c992623ce791725b21e857e33248d1f190a25b5168313420eebdaae99d816040516112609190611f65565b60405180910390a150565b6000600281111561127f5761127e611d33565b5b600260003373ffffffffffffffffffffffffffffffffffffffff1673ffffffffffffffffffffffffffffffffffffffff16815260200190815260200160002060010160009054906101000a900460ff1660028111156112e1576112e0611d33565b5b03611321576040517f08c379a000000000000000000000000000000000000000000000000000000000815260040161131890612a0b565b60405180910390fd5b60006004600084815260200190815260200160002090508060050160009054906101000a900460ff16611389576040517f08c379a000000000000000000000000000000000000000000000000000000000815260040161138090612a77565b60405180910390fd5b80600401544211156113d0576040517f08c379a00000000000000000000000000000000000000000000000000000000081526004016113c790612ae3565b60405180910390fd5b8060060160003373ffffffffffffffffffffffffffffffffffffffff1673ffffffffffffffffffffffffffffffffffffffff16815260200190815260200160002060009054906101000a900460ff161561145f576040517f08c379a000000000000000000000000000000000000000000000000000000000815260040161145690612b4f565b60405180910390fd5b806002018054905082106114a8576040517f08c379a000000000000000000000000000000000000000000000000000000000815260040161149f90612bbb565b60405180910390fd5b8060030182815481106114be576114bd612bdb565b5b9060005260206000200160008154809291906114d9906127c5565b919050555060018160060160003373ffffffffffffffffffffffffffffffffffffffff1673ffffffffffffffffffffffffffffffffffffffff16815260200190815260200160002060006101000a81548160ff0219169083151502179055507f1abe610cf2bf87e57dcc1181fcf5ac0934e843d8344ab9eed6e86c799f62585e83338460405161156b93929190612c0a565b60405180910390a1505050565b60015481565b60606000600281111561159457611593611d33565b5b600260008473ffffffffffffffffffffffffffffffffffffffff1673ffffffffffffffffffffffffffffffffffffffff16815260200190815260200160002060010160009054906101000a900460ff1660028111156115f6576115f5611d33565b5b03611636576040517f08c379a000000000000000000000000000000000000000000000000000000000815260040161162d90612c8d565b60405180910390fd5b600260008373ffffffffffffffffffffffffffffffffffffffff1673ffffffffffffffffffffffffffffffffffffffff1681526020019081526020016000206000018054611683906124e7565b80601f01602080910402602001604051908101604052809291908181526020018280546116af906124e7565b80156116fc5780601f106116d1576101008083540402835291602001916116fc565b820191906000526020600020905b8154815290600101906020018083116116df57829003601f168201915b50505050509050919050565b60006004600084815260200190815260200160002060060160008373ffffffffffffffffffffffffffffffffffffffff1673ffffffffffffffffffffffffffffffffffffffff16815260200190815260200160002060009054906101000a900460ff16905092915050565b606060058054806020026020016040519081016040528092919081815260200182805480156117f757602002820191906000526020600020905b8160009054906101000a900473ffffffffffffffffffffffffffffffffffffffff1673ffffffffffffffffffffffffffffffffffffffff16815260200190600101908083116117ad575b5050505050905090565b828054828255906000526020600020908101928215611849579160200282015b8281111561184857825182908161183891906126c4565b5091602001919060010190611821565b5b50905061185691906118e7565b5090565b828054828255906000526020600020908101928215611896579160200282015b8281111561189557825182559160200191906001019061187a565b5b5090506118a3919061190b565b5090565b5080546118b3906124e7565b6000825580601f106118c557506118e4565b601f0160209004906000526020600020908101906118e3919061190b565b5b50565b5b8082111561190757600081816118fe91906118a7565b506001016118e8565b5090565b5b8082111561192457600081600090555060010161190c565b5090565b6000604051905090565b600080fd5b600080fd5b600080fd5b600080fd5b6000601f19601f8301169050919050565b7f4e487b7100000000000000000000000000000000000000000000000000000000600052604160045260246000fd5b61198f82611946565b810181811067ffffffffffffffff821117156119ae576119ad611957565b5b80604052505050565b60006119c1611928565b90506119cd8282611986565b919050565b600067ffffffffffffffff8211156119ed576119ec611957565b5b6119f682611946565b9050602081019050919050565b82818337600083830152505050565b6000611a25611a20846119d2565b6119b7565b905082815260208101848484011115611a4157611a40611941565b5b611a4c848285611a03565b509392505050565b600082601f830112611a6957611a6861193c565b5b8135611a79848260208601611a12565b91505092915050565b600067ffffffffffffffff821115611a9d57611a9c611957565b5b602082029050602081019050919050565b600080fd5b6000611ac6611ac184611a82565b6119b7565b90508083825260208201905060208402830185811115611ae957611ae8611aae565b5b835b81811015611b3057803567ffffffffffffffff811115611b0e57611b0d61193c565b5b808601611b1b8982611a54565b85526020850194505050602081019050611aeb565b5050509392505050565b600082601f830112611b4f57611b4e61193c565b5b8135611b5f848260208601611ab3565b91505092915050565b6000819050919050565b611b7b81611b68565b8114611b8657600080fd5b50565b600081359050611b9881611b72565b92915050565b600080600060608486031215611bb757611bb6611932565b5b600084013567ffffffffffffffff811115611bd557611bd4611937565b5b611be186828701611a54565b935050602084013567ffffffffffffffff811115611c0257611c01611937565b5b611c0e86828701611b3a565b9250506040611c1f86828701611b89565b9150509250925092565b600073ffffffffffffffffffffffffffffffffffffffff82169050919050565b6000611c5482611c29565b9050919050565b611c6481611c49565b8114611c6f57600080fd5b50565b600081359050611c8181611c5b565b92915050565b600060208284031215611c9d57611c9c611932565b5b6000611cab84828501611c72565b91505092915050565b600081519050919050565b600082825260208201905092915050565b60005b83811015611cee578082015181840152602081019050611cd3565b60008484015250505050565b6000611d0582611cb4565b611d0f8185611cbf565b9350611d1f818560208601611cd0565b611d2881611946565b840191505092915050565b7f4e487b7100000000000000000000000000000000000000000000000000000000600052602160045260246000fd5b60038110611d7357611d72611d33565b5b50565b6000819050611d8482611d62565b919050565b6000611d9482611d76565b9050919050565b611da481611d89565b82525050565b60006040820190508181036000830152611dc48185611cfa565b9050611dd36020830184611d9b565b9392505050565b611de381611b68565b82525050565b6000602082019050611dfe6000830184611dda565b92915050565b6000602082019050611e196000830184611d9b565b92915050565b60008060408385031215611e3657611e35611932565b5b6000611e4485828601611b89565b9250506020611e5585828601611c72565b9150509250929050565b60008115159050919050565b611e7481611e5f565b82525050565b6000602082019050611e8f6000830184611e6b565b92915050565b60038110611ea257600080fd5b50565b600081359050611eb481611e95565b92915050565b600080600060608486031215611ed357611ed2611932565b5b6000611ee186828701611c72565b935050602084013567ffffffffffffffff811115611f0257611f01611937565b5b611f0e86828701611a54565b9250506040611f1f86828701611ea5565b9150509250925092565b600060208284031215611f3f57611f3e611932565b5b6000611f4d84828501611b89565b91505092915050565b611f5f81611c49565b82525050565b6000602082019050611f7a6000830184611f56565b92915050565b600081519050919050565b600082825260208201905092915050565b6000819050602082019050919050565b600082825260208201905092915050565b6000611fc882611cb4565b611fd28185611fac565b9350611fe2818560208601611cd0565b611feb81611946565b840191505092915050565b60006120028383611fbd565b905092915050565b6000602082019050919050565b600061202282611f80565b61202c8185611f8b565b93508360208202850161203e85611f9c565b8060005b8581101561207a578484038952815161205b8582611ff6565b94506120668361200a565b925060208a01995050600181019050612042565b50829750879550505050505092915050565b600081519050919050565b600082825260208201905092915050565b6000819050602082019050919050565b6120c181611b68565b82525050565b60006120d383836120b8565b60208301905092915050565b6000602082019050919050565b60006120f78261208c565b6121018185612097565b935061210c836120a8565b8060005b8381101561213d57815161212488826120c7565b975061212f836120df565b925050600181019050612110565b5085935050505092915050565b600060c08201905061215f6000830189611dda565b81810360208301526121718188611cfa565b905081810360408301526121858187612017565b9050818103606083015261219981866120ec565b90506121a86080830185611dda565b6121b560a0830184611e6b565b979650505050505050565b60006080820190506121d56000830187611dda565b81810360208301526121e78186611cfa565b90506121f66040830185611dda565b6122036060830184611e6b565b95945050505050565b6000806040838503121561222357612222611932565b5b600061223185828601611b89565b925050602061224285828601611b89565b9150509250929050565b600060208201905081810360008301526122668184611cfa565b905092915050565b600081519050919050565b600082825260208201905092915050565b6000819050602082019050919050565b6122a381611c49565b82525050565b60006122b5838361229a565b60208301905092915050565b6000602082019050919050565b60006122d98261226e565b6122e38185612279565b93506122ee8361228a565b8060005b8381101561231f57815161230688826122a9565b9750612311836122c1565b9250506001810190506122f2565b5085935050505092915050565b6000602082019050818103600083015261234681846122ce565b905092915050565b7f4e6f742061206d616e6167657200000000000000000000000000000000000000600082015250565b6000612384600d83611cbf565b915061238f8261234e565b602082019050919050565b600060208201905081810360008301526123b381612377565b9050919050565b7f4174206c656173742074776f206f7074696f6e73207265717569726564000000600082015250565b60006123f0601d83611cbf565b91506123fb826123ba565b602082019050919050565b6000602082019050818103600083015261241f816123e3565b9050919050565b7f436c6f73696e672064617465206d75737420626520696e20746865206675747560008201527f7265000000000000000000000000000000000000000000000000000000000000602082015250565b6000612482602283611cbf565b915061248d82612426565b604082019050919050565b600060208201905081810360008301526124b181612475565b9050919050565b7f4e487b7100000000000000000000000000000000000000000000000000000000600052602260045260246000fd5b600060028204905060018216806124ff57607f821691505b602082108103612512576125116124b8565b5b50919050565b60008190508160005260206000209050919050565b60006020601f8301049050919050565b600082821b905092915050565b60006008830261257a7fffffffffffffffffffffffffffffffffffffffffffffffffffffffffffffffff8261253d565b612584868361253d565b95508019841693508086168417925050509392505050565b6000819050919050565b60006125c16125bc6125b784611b68565b61259c565b611b68565b9050919050565b6000819050919050565b6125db836125a6565b6125ef6125e7826125c8565b84845461254a565b825550505050565b600090565b6126046125f7565b61260f8184846125d2565b505050565b5b81811015612633576126286000826125fc565b600181019050612615565b5050565b601f8211156126785761264981612518565b6126528461252d565b81016020851015612661578190505b61267561266d8561252d565b830182612614565b50505b505050565b600082821c905092915050565b600061269b6000198460080261267d565b1980831691505092915050565b60006126b4838361268a565b9150826002028217905092915050565b6126cd82611cb4565b67ffffffffffffffff8111156126e6576126e5611957565b5b6126f082546124e7565b6126fb828285612637565b600060209050601f83116001811461272e576000841561271c578287015190505b61272685826126a8565b86555061278e565b601f19841661273c86612518565b60005b828110156127645784890151825560018201915060208501945060208101905061273f565b86831015612781578489015161277d601f89168261268a565b8355505b6001600288020188555050505b505050505050565b7f4e487b7100000000000000000000000000000000000000000000000000000000600052601160045260246000fd5b60006127d082611b68565b91507fffffffffffffffffffffffffffffffffffffffffffffffffffffffffffffffff820361280257612801612796565b5b600182019050919050565b60006040820190506128226000830185611dda565b81810360208301526128348184611cfa565b90509392505050565b7f5573657220616c72656164792065786973747300000000000000000000000000600082015250565b6000612873601383611cbf565b915061287e8261283d565b602082019050919050565b600060208201905081810360008301526128a281612866565b9050919050565b60006060820190506128be6000830186611f56565b81810360208301526128d08185611cfa565b90506128df6040830184611d9b565b949350505050565b7f566f746520616c726561647920636c6f73656400000000000000000000000000600082015250565b600061291d601383611cbf565b9150612928826128e7565b602082019050919050565b6000602082019050818103600083015261294c81612910565b9050919050565b7f5573657220646f6573206e6f7420657869737400000000000000000000000000600082015250565b6000612989601383611cbf565b915061299482612953565b602082019050919050565b600060208201905081810360008301526129b88161297c565b9050919050565b7f4e6f7420617574686f72697a6564000000000000000000000000000000000000600082015250565b60006129f5600e83611cbf565b9150612a00826129bf565b602082019050919050565b60006020820190508181036000830152612a24816129e8565b9050919050565b7f566f746520697320636c6f736564000000000000000000000000000000000000600082015250565b6000612a61600e83611cbf565b9150612a6c82612a2b565b602082019050919050565b60006020820190508181036000830152612a9081612a54565b9050919050565b7f566f74696e6720706572696f642068617320656e646564000000000000000000600082015250565b6000612acd601783611cbf565b9150612ad882612a97565b602082019050919050565b60006020820190508181036000830152612afc81612ac0565b9050919050565b7f416c726561647920766f74656420696e207468697320766f7465000000000000600082015250565b6000612b39601a83611cbf565b9150612b4482612b03565b602082019050919050565b60006020820190508181036000830152612b6881612b2c565b9050919050565b7f496e76616c6964206f7074696f6e000000000000000000000000000000000000600082015250565b6000612ba5600e83611cbf565b9150612bb082612b6f565b602082019050919050565b60006020820190508181036000830152612bd481612b98565b9050919050565b7f4e487b7100000000000000000000000000000000000000000000000000000000600052603260045260246000fd5b6000606082019050612c1f6000830186611dda565b612c2c6020830185611f56565b612c396040830184611dda565b949350505050565b7f55736572206e6f7420666f756e64000000000000000000000000000000000000600082015250565b6000612c77600e83611cbf565b9150612c8282612c41565b602082019050919050565b60006020820190508181036000830152612ca681612c6a565b905091905056fea2646970667358221220ff7753d30166ad8533002992eb7a6eb042a2483033016c5f5214bf6f177696c064736f6c634300081b0033",
  "linkReferences": {},
  "deployedLinkReferences": {}
}